:100000000C9463000C948B000C948B000C948B006C
:100010000C948B000C948B000C948B000C948B0034
:100020000C948B000C948B000C948B000C94C80ADD
:100030000C948B000C948B000C948B000C948B0014
:100040000C94CF0D0C948B000C942D110C945F111B
:100050000C948B000C948B000C948B000C948B00F4
:100060000C948B000C948B0000000008000201002F
:100070000003040700000000000000000102040863
:100080001020408001020408102001020408102002
:10009000040404040404040402020202020203032E
:1000A00003030303000000002300260029000000D2
:1000B0000000250028002B0000000000240027007D
:1000C0002A00AA0A8F1111241FBECFEFD8E0DEBF8D
:1000D000CDBF14E0A0E0B1E0ECE3F9E202C005908E
:1000E0000D92A23AB107D9F725E0A2EAB4E001C027
:1000F0001D92A43BB207E1F710E0C6ECD0E004C0CB
:100100002297FE010E941B14C23CD107C9F70E942E
:10011000D3110C949C140C9400000895FC0160838E
:1001200028EC30E034832383089508950F931F93C0
:10013000CF93DF93EC018B0161E088810E94890FEE
:10014000B8018981DF91CF911F910F910C94C80E56
:10015000FC01862F6083418361E00C94500F0F9364
:100160001F93CF93DF93EC018B0160E088810E94A5
:10017000890FB8018981DF91CF911F910F910C9464
:10018000C80E60E070E0FC0181810C94C80EEF9213
:10019000FF920F931F93CF93DF9300D01F92CDB7A1
:1001A000DEB78C017B0102960E94840BF801F48675
:1001B000E38617828FE08683CE0101960E94840B2E
:1001C00029813A814B81F80122833383448381E082
:1001D00081870F900F900F90DF91CF911F910F911A
:1001E000FF90EF9008950F931F93CF93DF9300D06C
:1001F000CDB7DEB7FC0142872683619371938F01EF
:10020000B901CF0149835A830E94650C4981642F4B
:100210005A81752FC8010F900F90DF91CF911F91D8
:100220000F910C941E0CFC01618708959F92AF9270
:10023000BF92CF92DF92EF92FF920F931F93CF93D3
:10024000DF93EC017B016CE071E087E195E00E94B7
:1002500020126B857C8587E195E00E94201264E185
:1002600071E087E195E00E9420124AE050E0B7017A
:1002700087E195E00E94E21264E271E087E195E097
:100280000E942D12888199810E947F0DFE0181912B
:1002900091918F010E94CB0D982EC8010E94E70C0E
:1002A0006C018D83CE14DF0409F447C0CE14DF0443
:1002B00024F4FFEFCF1ADF0A03C081E0C81AD10887
:1002C000B601C8010E94650C6F8170E06B5F7F4FC3
:1002D000882777FD8095982F0E94480E8881998104
:1002E0000E947F0D888199810E94CB0D9985992369
:1002F000C9F28915B9F2AB84BC8469E271E0C50129
:100300000E948B14892B99F0B50187E195E00E943A
:10031000201260E271E087E195E00E9420126DE218
:1003200071E087E195E00E942D1281E007C0E0EACC
:10033000CE16D1040CF0B6CFE7CF80E0DF91CF919D
:100340001F910F91FF90EF90DF90CF90BF90AF90F3
:100350009F900895FC0147830C9416010F931F93FF
:10036000CF93DF93EC018C010E5F1F4FC8010E94F9
:10037000E70C2E8130E082179307C1F58885811143
:1003800035C06CE671E087E195E00E9420126B8534
:100390007C8587E195E00E9420126EE771E087E19D
:1003A00095E00E942D122D8130E08E81281B3109AD
:1003B00037FF03C03195219531098F8190E0059673
:1003C000289FB001299F700D389F700D1124882738
:1003D00077FD8095982F0E94480E81E08887C8019C
:1003E000DF91CF911F910F910C94240CDF91CF914D
:1003F0001F910F910895FC0180850895FC0160878D
:100400000895FC0166830895FC01628570E0029600
:100410000C941E0C60E082E00E94500F61E08DE0C1
:100420000E94500F60E08FE00E94500F61E084E076
:100430000E94500F26E040E855E260E070E087E15E
:1004400095E00E94CB1069E871E087E195E00E9499
:100450002D1262E971E087E195E00E942D1262E0C1
:1004600070E080EE94E00E94590D4BE050E06DE0AA
:1004700070E082ED94E00E94A80062E070E089ECF8
:1004800094E00E948E0023E230E049E050E060EE0C
:1004900074E08CEB94E00E94F3002AE530E046E043
:1004A00050E060EE74E08FEA94E00E94F3002CE3E9
:1004B00030E045E050E060EE74E082EA94E00E94B3
:1004C000F30081E29EE4A0E0B0E08093D404909336
:1004D000D504A093D604B093D7046AEA71E087E10B
:1004E00095E00E942D1280E00E94AB0EBC0188278F
:1004F00077FD8095982F0C9421138F929F92AF9245
:10050000BF92CF92DF92EF92FF92CF934C0164ECB7
:1005100071E087E195E00E9420124AE050E0B401CA
:1005200087E195E00E94E21262ED71E087E195E0DB
:100530000E942D1280EE94E00E947F0D80EE94E0E8
:100540000E94CB0DC82FC12CD12C7601AA2497FC78
:10055000A094BA2C61E070E080E090E00E94480E28
:100560008FEFC81AD80AE80AF80A80EE94E00E94D1
:100570007F0D80EE94E00E94CB0D8C1751F06BED57
:1005800071E087E195E00E942D1281E08093DD0407
:1005900005C08C149D04AE04BF04E4F6CF91FF9017
:1005A000EF90DF90CF90BF90AF909F908F90089585
:1005B0000F931F93CF93DF938C01C0E0D0E0C0175F
:1005C000D107B4F461E084E00E94890F68EE73E023
:1005D00080E090E00E94480E60E084E00E94890F75
:1005E00068EE73E080E090E00E94480E2196E7CF2D
:1005F000DF91CF911F910F910895AC0165EA70E0F2
:100600008CEB94E00E94AA018093DD0462E370E029
:1006100080E090E00C94480ECF93DF93EC01AC01A6
:1006200063E770E08CEB94E00E94AA018093DD0404
:10063000AE016AE770E08CEB94E00E94AA0180931F
:10064000DD04DF91CF9108954EE150E067E370E063
:100650008CEB94E00E94AA018093DD044EE150E00F
:100660006AE770E08CEB94E00E94AA018093DD04BD
:100670000895AC0164E170E08FEA94E00E94AA0161
:100680008093DD040895AC0166E470E08FEA94E0A5
:100690000E94AA018093DD040895AC016CE370E030
:1006A0008FEA94E00E94AA018093DD040895AC01D2
:1006B00063E270E08FEA94E00E94AA018093DD0477
:1006C00008958091D804882319F069E670E002C08B
:1006D00063E270E040E050E08CEB94E00C94AA01FF
:1006E000AC0169E670E08CEB94E00E94AA01809373
:1006F000DD0408952091D804222319F06CE370E002
:1007000002C06AE570E0AC018FEA94E00E94AA01A1
:100710008093DD0462E370E080E090E00C94480E8A
:10072000AC0160EA70E082EA94E00E94AA01809342
:10073000DD0462E370E080E090E00C94480EAC01D0
:1007400068E770E082EA94E00E94AA018093DD04E9
:1007500062E370E080E090E00C94480EAC016CE342
:1007600070E082EA94E00E94AA018093DD0462E3D3
:1007700070E080E090E00C94480E1F93CF93DF93DD
:10078000EC018091DD04811104C080E090E00E94C2
:1007900090038091DD04811104C084E690E00E9402
:1007A0007D0210E0812F90E08C179D0774F480E0AB
:1007B00090E00E949F038FE090E00E947D0280E025
:1007C00090E00E9490031F5FEDCF86E490E00E94CE
:1007D0007D0280E090E0DF91CF911F910C94AE03F9
:1007E000CF93DF93EC018091DD04811103C0CE0132
:1007F0000E944D038091DD04811105C0CE01DF917F
:10080000CF910C94FD02DF91CF9108958091DD048A
:10081000811104C080E090E00E944D038091DD04CE
:10082000811106C064E670E082ED94E00E949600BB
:1008300080ED97E00E947D0282ED94E00E94C1006D
:100840008091DD04811104C080E090E00C94F003FD
:1008500008958091DD04811104C080E090E00E9441
:100860004D038091DD04811104C08AE090E00E9474
:1008700070038091DD04811104C088EE93E00E9432
:100880007D028091DD04811104C080E090E00C9431
:10089000F00308958091DD04811104C080E090E0B0
:1008A0000E944D038091DD04811104C08AE090E034
:1008B0000E9470038091DD04811104C08CED95E0ED
:1008C0000E947D028091DD04811102C00E946103BB
:1008D0008091DD04811104C088E592E00E947D02D0
:1008E0008091DD04811104C080E090E00C94F0035D
:1008F00008958091DD04811104C080E090E00E94A1
:100900004D038091DD04811104C085E090E00E94D8
:100910000C038091DD04811104C084EF91E00E94FA
:100920007D028091DD04811104C085E090E00E9489
:100930000C038091DD04811104C084EF91E00E94DA
:100940007D028091DD04811104C085E090E00E9469
:100950000C038091DD04811104C084EF91E00E94BA
:100960007D028091DD04811102C00E9461038091AB
:10097000DD04811104C084EF91E00E947D0280912A
:10098000DD04811104C080E090E00C94F003089530
:100990008091DD04811104C08EE190E00E94390352
:1009A0008091DD04811104C080E090E00E944D033D
:1009B0008091DD04811102C00E9424038091DD0436
:1009C000811104C08CED95E00E947D028091DD04D0
:1009D000811102C00E9461038091DD04811104C075
:1009E00080E090E00E947A038091DD04811104C0D0
:1009F00080E090E00E944D038091DD04811104C0ED
:100A00008AE090E00E9470038091DD04811102C0B1
:100A10000E9461038091DD04811104C080E090E0B8
:100A20000E947A038091DD04811104C088EE93E076
:100A30000E947D028091DD04811104C08EE190E06E
:100A40000E9439038091DD04811102C00E942403B9
:100A50008091DD04811104C080E293E00E947D0258
:100A60008091DD04811104C080E090E00C94F003DB
:100A700008958091DD04811104C080E090E00E941F
:100A80004D038091DD04811104C080E090E00E945C
:100A90000C038091DD04811104C080E090E00E948D
:100AA00070038091DD04811102C00E946103809176
:100AB000DD04811104C080E090E00E947A038091FF
:100AC000DD04811104C08CED95E00E947D028091CF
:100AD000DD04811104C080E090E00E944D0380910C
:100AE000DD04811104C085E090E00C94F0030895CA
:100AF0008091DD04811104C080E090E00E944D03EC
:100B00008091DD04811104C080E090E00E940C031C
:100B10008091DD04811102C00E9461038091DD0497
:100B2000811104C080E090E00E944D038091DD04BB
:100B3000811104C08CEB92E00E947D028091DD0463
:100B4000811104C082E090E00E9470038091DD0476
:100B5000811104C088EE93E00E947D028091DD0443
:100B6000811104C08FE090E00C94F003089580910F
:100B7000DD04811104C080E090E00E944D0380916B
:100B8000DD04811104C08AE090E00E94700380912E
:100B9000DD04811104C08EE190E00E94FD0280918D
:100BA000DD04811104C08CE291E00C947D02089573
:100BB0008091DD04811104C087E090E00E944D0324
:100BC0008091DD04811104C080E090E00E947A03EE
:100BD0008091DD04811104C08CEB92E00E947D02C3
:100BE0008091DD04811104C080E090E00E945703F1
:100BF0008091DD04811104C084EF91E00E947D02A8
:100C00008091DD04811104C080E090E00E947A03AD
:100C10008091DD04811104C080E090E00E945703C0
:100C20008091DD04811104C08FE090E00C94F0030A
:100C300008958091DD04811104C08EE190E00C9450
:100C4000F0030895CF93DF93C5E0D0E08091DD04F9
:100C5000811104C08AE090E00E9457038091DD0476
:100C6000811104C080E090E00E947A038091DD044D
:100C7000811104C088EC90E00E947D02219731F739
:100C80008091DD04811106C080E090E0DF91CF917A
:100C90000C94F003DF91CF910895CF93DF93C5E0DB
:100CA000D0E08091DD04811104C080E090E00E94DA
:100CB00043038091DD04811104C080E090E00E9434
:100CC0007A03219771F78091DD04811104C084EFCC
:100CD00091E00E947D028091DD04811106C080E0D8
:100CE00090E0DF91CF910C94F003DF91CF910895C4
:100CF0008091DD04811104C080E090E00E944D03EA
:100D00008091DD04811104C080E090E00E940C031A
:100D10008091DD04811104C080E090E00E940C030A
:100D20008091DD04811104C080E090E00E940C03FA
:100D30008091DD04811104C080E090E00E940C03EA
:100D40008091DD04811104C080E090E00E940C03DA
:100D50008091DD04811104C080E090E00E940C03CA
:100D60008091DD04811104C080E090E00E940C03BA
:100D70008091DD04811102C00E9461038091DD0435
:100D8000811104C080E090E00C94F00308958091FC
:100D9000DD04811106C064E670E082ED94E00E94FB
:100DA00096008091DD04811104C088E592E00E94E4
:100DB0007D028091DD04811106C064E670E082ED61
:100DC00094E00E94AF008091DD04811104C088E5A9
:100DD00092E00E947D028091DD04811106C064E6EC
:100DE00070E082ED94E00E9496008091DD04811114
:100DF00004C088E592E00E947D028091DD048111AB
:100E000006C064E670E082ED94E00E94AF0080913D
:100E1000DD04811104C088E592E00E947D0282ED2C
:100E200094E00E94C1008091DD04811104C08EE134
:100E300090E00E9439038091DD04811102C00E947C
:100E400024038091DD04811104C080E090E00C94C3
:100E5000F003089560E08CEB94E00E941301809110
:100E6000DD04811104C080E090E00E94F0038091D5
:100E7000DD04811104C080E090E00E94700361E015
:100E80008CEB94E00E9413018091DD04811104C079
:100E900080ED97E00C947D020895CF93DF9360E09E
:100EA0008CEB94E00E9413018091DD04811104C059
:100EB00080E090E00E94F003C3E0D0E08091DD0488
:100EC000811104C080E090E00E9457038091DD040E
:100ED000811104C087E090E00E944D03219771F7D3
:100EE00061E08CEB94E00E9413018091DD0481119C
:100EF00006C084EF91E0DF91CF910C947D02DF91E9
:100F0000CF91089560E08CEB94E00E94130180E0A3
:100F100090E00E94F0030E94610380E090E00E9454
:100F2000F0030E94610380E090E00E94F00340E043
:100F300050E063E270E08CEB94E00E94AA0161E073
:100F40008CEB94E00E9413018091DD04811104C0B8
:100F50008CE291E00E947D0260E082EA94E00E94CF
:100F6000FE018091DD04811104C080E090E00E94C8
:100F700057038091DD04811104C087E090E00C9458
:100F8000BD03089580EE94E00E947F0D80EE94E012
:100F90000E94CB0D90E09093DF048093DE0480915B
:100FA000D8048823A1F18091DB049091DC04079799
:100FB00074F16DE572E087E195E00E942D121092C8
:100FC000D8041092DC041092DB048CEB94E00E94B5
:100FD00004028FEA94E00E9404021092DA04109254
:100FE000D9046AE570E08FEA94E00E94010260E0B3
:100FF0008FEA94E00E94FE0163E270E08CEB94E0E3
:101000000E94010260E08CEB94E00E94FE0182EA03
:1010100094E00E94FB0181110BC066E872E087E159
:1010200095E00E942D1280E090E00E94AE0373C212
:101030008CEB94E00E94FB01811109C062E972E02F
:1010400087E195E00E942D120E94610364C28FEA3D
:1010500094E00E94FB0181110BC062EA72E087E11B
:1010600095E00E942D1280E090E00E947A0353C226
:101070008091050190910601A0910701B0910801AE
:101080000597A105B1055CF580910401811127C088
:1010900081E08093040160E08CEB94E00E94FE010B
:1010A0006FEA72E087E195E00E942D128CEB94E0EC
:1010B0000E9404028FEA94E00E9404028091DD0401
:1010C000811104C085E090E00E9470038091DD04EE
:1010D000811121C288EE93E00E947D021CC28091A2
:1010E000DE049091DF04019709F015C264EC72E010
:1010F00087E195E00E942D1260E08CEB94E00E9465
:10110000FE0160E08FEA94E00E94FE018CEB94E027
:101110000E9404028FEA94E00E94040282EA94E0B2
:101120000E9404028091D804811115C02DE030E0A6
:1011300040E050E061E070E080E090E00E944D13FC
:101140002091090130910A012617370779F370932E
:101150000A01609309018091D804882331F161E08C
:1011600084E00E94890F66ED72E087E195E00E94BD
:10117000201281E090E090930A0180930901609130
:10118000DB047091DC046F5F7F4F7093DC0460932D
:10119000DB044AE050E087E195E00E94E21269EF4B
:1011A00072E087E195E00E942D128091D8048111B0
:1011B00049C08091D9049091DA0401969093DA04A1
:1011C0008093D90460E073E087E195E00E942012EB
:1011D0006091D9047091DA044AE050E087E195E02B
:1011E0000E94E21266E173E087E195E00E9420121E
:1011F0004AE050E065E070E087E195E00E94EA1285
:101200006BE173E087E195E00E9420120E94190EC5
:10121000AB01BC018091D4049091D504A091D60477
:10122000B091D704481B590B6A0B7B0B2AE030E0C6
:1012300087E195E00E940F138091D9049091DA0420
:101240000E94D8020E94190E6093D4047093D504B2
:101250008093D6049093D7048091D804811121C043
:101260008091D9049091DA040597DCF060E373E093
:1012700087E195E00E942D1281E08093D80469E611
:1012800070E08CEB94E00E9401026CE370E08FEA66
:1012900094E00E94010264E670E080E090E00E9429
:1012A000480E8091D804882331F161E084E00E94E7
:1012B000890F8091DB049091DC048530910571F0F9
:1012C0002CF40497A9F489E090E00AC086309105D7
:1012D00061F0079769F486E690E002C085E690E049
:1012E00090930A01809309010AC084E690E0F8CF48
:1012F00081E090E0F5CF60E084E00E94890F6AE52C
:1013000073E087E195E00E942012609109017091DD
:101310000A014AE050E087E195E00E94E21269E7A5
:1013200073E087E195E00E942D126BE773E087E19F
:1013300095E00E9420128091090190910A01893064
:10134000910509F49BC03CF58430910509F472C005
:1013500064F48230910509F45BC00CF062C001971F
:1013600009F0CBC065E873E0CAC08630910509F486
:1013700073C00CF468C08730910509F476C00897F3
:1013800009F0BBC06AED73E087E195E00E942D1281
:101390000E941906BCC08F30910509F493C0B4F4C3
:1013A0008B30910509F47CC00CF471C08C30910530
:1013B00009F47FC00E9709F0A0C061E174E087E1F5
:1013C00095E00E942D120E944D06A1C08436910521
:1013D00009F481C064F4409709F08FC064E374E0BD
:1013E00087E195E00E942D120E944D0790C085363E
:1013F000910509F479C08636910509F07EC06BE647
:1014000074E087E195E00E942D120E9482077FC060
:1014100061E973E087E195E00E942D120E942904A2
:1014200076C067E973E087E195E00E942D120E9483
:1014300079046DC061EA73E087E195E00E942D12A6
:101440000E944A0464C062EB73E087E195E00E9469
:101450002D120E94C8045BC06AEC73E087E195E03E
:101460000E942D120E94390552C061ED73E087E1A0
:1014700095E00E942D120E94780549C065EE73E048
:1014800087E195E00E942D120E94B70540C06CEEE6
:1014900073E087E195E00E942D120E94D80537C0C5
:1014A00067EF73E087E195E00E942D120E94060429
:1014B0002EC062E074E087E195E00E942D120E9448
:1014C000C70625C065E274E087E195E00E942D1211
:1014D0000E942A071CC06CE474E087E195E00E943A
:1014E0002D120E94780613C066E574E087E195E04E
:1014F0000E942D120E9422060AC06AE774E087E16A
:1015000095E00E942D1280E090E00E94F00310927E
:10151000DD04109204018CEB94E00E94AE018FEA8E
:1015200094E00E94AE0182EA94E00E94AE0120E2C3
:1015300031EA47E050E061E070E080E090E00E9436
:101540004D136093050170930601809307019093FA
:101550000801089580EE94E00E944D0D82ED94E024
:101560000E94950089EC94E00E948D0069E271E090
:101570008CEB94E00E94C7006AEA72E08FEA94E084
:101580000E94C7006DE872E082EA94E00C94C70004
:101590001F920F920FB60F9211242F933F934F93E8
:1015A0005F936F937F938F939F93AF93BF93EF93CB
:1015B000FF938091E90487FF05C010928500109287
:1015C00084001AC02091E904332727FD30958091CB
:1015D000E80490E0281739077CF48091E904992702
:1015E00087FD9095FC01EE0FFF1FE80FF91FE651F4
:1015F000FB4F808186FD15C08091E9048F5F809349
:10160000E9042091E904332727FD30958091E8040F
:1016100090E028173907BCF48091E9048C305CF124
:1016200012C08091E904992787FD9095FC01EE0F87
:10163000FF1FE80FF91FE651FB4F808160E08F73B9
:101640000E94890FD9CF80918400909185000496E3
:1016500080349C4918F480E49CE905C080918400A2
:1016600090918500049690938900809388008FEF75
:101670008093E90438C020918400309185008091E6
:10168000E904992787FD9095FC01EE0FFF1FE80FF5
:10169000F91FE651FB4F81819281820F931F909336
:1016A0008900809388008091E904992787FD9095AF
:1016B000FC01EE0FFF1FE80FF91FE651FB4F808181
:1016C00086FF11C08091E904992787FD9095FC0160
:1016D000EE0FFF1FE80FF91FE651FB4F808161E01D
:1016E0008F730E94890FFF91EF91BF91AF919F91EE
:1016F0008F917F916F915F914F913F912F910F90BB
:101700000FBE0F901F9018952091E8042C30A0F484
:1017100031E0320F3093E804FC012083822F90E007
:10172000FC01EE0FFF1FE80FF91FE651FB4F88EB9E
:101730009BE09283818308952FEFFC01208308951D
:10174000DF92EF92FF920F931F93CF93DF93EC0101
:10175000D62E7A01890188818C3008F066C061E05C
:101760008D2D0E94500F8881A82FB0E0FD01EE0F53
:10177000FF1FEA0FFB1FE651FB4F2D2D2F739081AA
:10178000907C922B908360E272E06E197F0977FF64
:1017900002C06D5F7F4F75956795759567956983F5
:1017A00040E659E0401B510B57FF02C04D5F5F4FB1
:1017B00055954795559547954A836CE00E94C1130E
:1017C0009CE0899FB001112420E030E0A901460F80
:1017D000571FFA01EE0FFF1FE40FF51FE651FB4FF5
:1017E000908196FD16C02F5F3F4F2C30310571F769
:1017F00081110FC01092800082E0809381001092CE
:10180000850010928400B19A80916F00826080936D
:101810006F00888190E0FC01EE0FFF1FE80FF91FB9
:10182000E651FB4F8081806480838881DF91CF9176
:101830001F910F91FF90EF90DF90089520E639E01F
:1018400040E252E00C94A00BFC01808190E0FC018E
:10185000EE0FFF1FE80FF91FE651FB4F80818F7BD2
:1018600080830895FC0180818C3070F5918128E897
:1018700030E0291B310997FD3395220F331F220FCA
:10188000331F621773077CF0928128E532E0291B31
:10189000310997FD3395220F331F220F331F621733
:1018A00073070CF49B0122503109220F331F4FB7ED
:1018B000F89490E0FC01EE0FFF1FE80FF91FE651CE
:1018C000FB4F328321834FBF08954F925F926F92F7
:1018D0007F92AF92BF92CF92DF92EF92FF920F93DF
:1018E0001F93CF93DF93EC01603282E078070CF016
:1018F00040C077FD06C0653B71052CF064EB70E0DD
:1019000002C060E070E0898128E830E0281B3109DE
:1019100087FD3395220F331F220F331F5901CC242B
:10192000B7FCC094DC2C882777FD8095982F2A81FE
:1019300048E552E0421B510927FD5395440F551FBE
:10194000440F551F2A01662457FC6094762C7F9221
:101950006F925F924F9214EBE12EF12C00E010E0B9
:1019600020E030E0A9010E9469130F900F900F90C2
:101970000F90CE01DF91CF911F910F91FF90EF90CB
:10198000DF90CF90BF90AF907F906F905F904F901F
:101990000C94320CFC0180818F3FB1F090E0FC018F
:1019A000EE0FFF1FE80FF91FE651FB4F8181928177
:1019B00043E0880F991F4A95E1F754E09695879583
:1019C0005A95E1F70296089580E090E008954F92CD
:1019D0005F926F927F92AF92BF92CF92DF92EF921F
:1019E000FF920F931F93CF93DF9300D000D0CDB71A
:1019F000DEB7FC01228148E552E0421B510927FD78
:101A00005395440F551F440F551F2A01662457FC58
:101A10006094762C418128E830E0241B310947FD91
:101A20003395220F331F220F331F442737FD409574
:101A3000542F29833A834B835C830E94CA0C0196FE
:101A4000BC01882777FD8095982F1F921F921F92C7
:101A5000E4EBEF93A12CB12C650183017201298184
:101A60003A814B815C810E9469130F900F900F9017
:101A70000F90CB010F900F900F900F90DF91CF91AF
:101A80001F910F91FF90EF90DF90CF90BF90AF909C
:101A90007F906F905F904F900895FC0110821182AB
:101AA000128213828AE090E09583848316821782E3
:101AB00008950F931F93CF93DF931F92CDB7DEB797
:101AC0008C01FC016783862F69830E94BF0FF80198
:101AD00016826981862F0E94BF0F892B19F083E03F
:101AE000F80186830E94190EF80160837183828356
:101AF00093830F90DF91CF911F910F910895FF92E3
:101B00000F931F93CF93DF93EC018F810E94BF0F40
:101B1000FF24F394892B09F4F12C8E81982F977F61
:101B20009E8386958170F81651F00E94190E688385
:101B300079838A839B838E8192E0892721C00E94CA
:101B4000190E088119812A813B81601B710B820B60
:101B5000930B0C811D8120E030E060177107820734
:101B6000930778F08E8181708F1559F00E94190EBD
:101B7000688379838A839B838E8191E0892788603B
:101B80008E838E8183FB882780F9DF91CF911F910F
:101B90000F91FF900895FC018681817008951F9236
:101BA0000F920FB60F9211242F933F938F939F9311
:101BB000AF93BF9380910F0590911005A0911105EF
:101BC000B091120530910E0523E0230F2D3720F43C
:101BD0000196A11DB11D05C026E8230F0296A11D87
:101BE000B11D20930E0580930F0590931005A093CF
:101BF0001105B09312058091130590911405A091E1
:101C00001505B09116050196A11DB11D8093130510
:101C100090931405A0931505B0931605BF91AF914D
:101C20009F918F913F912F910F900FBE0F901F901A
:101C300018952FB7F89460910F0570911005809159
:101C40001105909112052FBF08953FB7F894809128
:101C5000130590911405A0911505B091160526B5B0
:101C6000A89B05C02F3F19F00196A11DB11D3FBFD4
:101C70006627782F892F9A2F620F711D811D911D64
:101C800042E0660F771F881F991F4A95D1F7089584
:101C9000CF92DF92EF92FF92CF93DF936B017C01A3
:101CA0000E94250EEB01C114D104E104F10489F076
:101CB0000E94B0130E94250E6C1B7D0B683E734082
:101CC00090F381E0C81AD108E108F108C851DC4F4F
:101CD000EACFDF91CF91FF90EF90DF90CF90089502
:101CE000789484B5826084BD84B5816084BD85B5F7
:101CF000826085BD85B5816085BDEEE6F0E08081BE
:101D000081608083E1E8F0E01082808182608083DE
:101D1000808181608083E0E8F0E080818160808361
:101D2000E1EBF0E0808184608083E0EBF0E0808193
:101D300081608083EAE7F0E0808184608083808135
:101D400082608083808181608083808180688083DD
:101D50001092C10008958E3008F08E508770209147
:101D60000B0190E4299F90011124822B80937C0029
:101D700080917A00806480937A0080917A0086FD59
:101D8000FCCF809178002091790090E0922B08950B
:101D90001F93CF93DF93182FEB0161E00E94500F48
:101DA000209711F460E004C0CF3FD10539F461E021
:101DB000812FDF91CF911F910C94890FE12FF0E0DB
:101DC000E859FF4FE491E330F9F048F4E130B9F01D
:101DD000E230A1F584B5806284BDC8BD34C0E7306F
:101DE000E9F0E83019F1E43049F580918000806233
:101DF00080938000D0938B00C0938A0024C084B568
:101E0000806884BDC7BD1FC08091800080688093BA
:101E10008000D0938900C093880015C08091B000E5
:101E200080688093B000C093B3000DC08091B00073
:101E300080628093B000C093B40005C0C038D10563
:101E40000CF0B5CFAFCFDF91CF911F9108958330C4
:101E500081F028F4813099F08230A1F00895873024
:101E6000A9F08830B9F08430D1F4809180008F7D62
:101E700003C0809180008F7780938000089584B59F
:101E80008F7702C084B58F7D84BD08958091B000A6
:101E90008F7703C08091B0008F7D8093B00008954C
:101EA000CF93DF9390E0FC01E458FF4F2491FC01B5
:101EB000E057FF4F8491882349F190E0880F991FE4
:101EC000FC01E854FF4FA591B49182559F4FFC014E
:101ED000C591D4919FB7611108C0F8948C91209559
:101EE00082238C93888182230AC0623051F4F89453
:101EF0008C91322F309583238C938881822B888319
:101F000004C0F8948C91822B8C939FBFDF91CF916A
:101F100008950F931F93CF93DF931F92CDB7DEB732
:101F2000282F30E0F901E859FF4F8491F901E45876
:101F3000FF4F1491F901E057FF4F04910023C9F0BE
:101F4000882321F069830E94270F6981E02FF0E048
:101F5000EE0FFF1FE255FF4FA591B4919FB7F89484
:101F60008C91611103C01095812301C0812B8C934A
:101F70009FBF0F90DF91CF911F910F910895CF9345
:101F8000DF93282F30E0F901E859FF4F8491F901E0
:101F9000E458FF4FD491F901E057FF4FC491CC238F
:101FA00091F081110E94270FEC2FF0E0EE0FFF1F40
:101FB000EC55FF4FA591B4912C912D2381E090E039
:101FC00021F480E002C080E090E0DF91CF9108959D
:101FD000FC01818D228D90E0805C9F4F821B9109D6
:101FE0008F7399270895FC01918D828D981731F098
:101FF000828DE80FF11D858D90E008958FEF9FEFA2
:102000000895FC01918D828D981761F0828DDF011A
:10201000A80FB11D5D968C91928D9F5F9F73928FDB
:1020200090E008958FEF9FEF089585E891E1892B67
:1020300049F080E090E0892B29F00E948511811100
:102040000C9400000895FC01848DDF01A80FB11DE0
:10205000A35ABF4F2C91848D90E001968F739927DE
:10206000848FA689B7892C93A089B1898C918064CB
:102070008C93938D848D981306C00288F389E02D8C
:1020800080818F7D80830895CF93DF93EC01888DCD
:102090008823C9F0EA89FB89808185FD05C0A8896C
:1020A000B9898C9186FD0FC00FB607FCF5CF8081F2
:1020B00085FFF2CFA889B9898C9185FFEDCFCE013C
:1020C0000E942310E7CFDF91CF910895CF92DF9246
:1020D000FF920F931F93CF93DF931F92CDB7DEB77D
:1020E0006C0181E0D60158968C9358975B969C9131
:1020F0005B975C968C915C97981307C05096ED9116
:10210000FC915197808185FD2EC0F601038D10E072
:102110000F5F1F4F0F731127F02EF601848DF812F9
:1021200011C00FB607FCF9CFD6015096ED91FC9186
:102130005197808185FFF1CFC60169830E942310EA
:102140006981EBCF838DE80FF11DE35AFF4F608368
:10215000D6015B960C935B975296ED91FC91539749
:10216000808180620CC0D6015696ED91FC91579704
:1021700060835096ED91FC915197808180648083BB
:1021800081E090E00F90DF91CF911F910F91FF9030
:10219000DF90CF900895BF92CF92DF92EF92FF929F
:1021A000CF93DF93EC016A017B01B22EE889F989B4
:1021B00082E08083411581EE580761057105A1F029
:1021C00060E079E08DE390E0A70196010E94CD13D5
:1021D0002150310941095109569547953795279561
:1021E000211580E1380798F0E889F989108260E8C4
:1021F00074E88EE190E0A70196010E94CD13215072
:102200003109410951095695479537952795EC8530
:10221000FD853083EE85FF852083188EEC89FD894E
:10222000B082EA89FB89808180618083EA89FB89A9
:10223000808188608083EA89FB89808180688083CF
:10224000EA89FB8980818F7D8083DF91CF91FF9028
:10225000EF90DF90CF90BF9008951F920F920FB62E
:102260000F9211242F938F939F93EF93FF93E091FD
:102270002705F09128058081E0912D05F0912E052C
:1022800082FD12C09081809130058F5F8F73209105
:102290003105821751F0E0913005F0E0E95EFA4F28
:1022A000958F8093300501C08081FF91EF919F91C0
:1022B0008F912F910F900FBE0F901F9018951F9226
:1022C0000F920FB60F9211242F933F934F935F936A
:1022D0006F937F938F939F93AF93BF93EF93FF93EE
:1022E00087E195E00E942310FF91EF91BF91AF919C
:1022F0009F918F917F916F915F914F913F912F911E
:102300000F900FBE0F901F90189587E195E00E94E7
:10231000E80F21E0892B09F420E0822F0895109224
:102320001A051092190588EE93E0A0E0B0E08093C2
:102330001B0590931C05A0931D05B0931E0586E810
:1023400094E0909318058093170585EC90E09093A6
:1023500024058093230584EC90E0909326058093D8
:10236000250580EC90E0909328058093270581EC6B
:1023700090E090932A058093290582EC90E0909359
:102380002C0580932B0586EC90E090932E0580938E
:102390002D051092300510923105109232051092E1
:1023A0003305089508950E94700E0E94D2110E9474
:1023B0000A02C5E1D0E10E94C2072097E1F30E9422
:1023C0001510F9CFCF92DF92EF92FF920F931F93E8
:1023D000CF93DF936C017A01EB01E60EF71E00E06C
:1023E00010E0CE15DF0561F06991D601ED91FC9109
:1023F0000190F081E02DC6010995080F191FF1CF5A
:10240000C801DF91CF911F910F91FF90EF90DF9066
:10241000CF9008956115710581F0DB010D900020CA
:10242000E9F7AD0141505109461B570BDC01ED9115
:10243000FC910280F381E02D099480E090E0089502
:102440000C940A12DC01ED91FC910190F081E02DD9
:10245000099462E974E00C940A120F931F93CF93CE
:10246000DF93EC010E940A128C01CE010E94291216
:10247000800F911FDF91CF911F910F9108958F923F
:102480009F92AF92BF92CF92DF92EF92FF920F9303
:102490001F93CF93DF93CDB7DEB7A1970FB6F89414
:1024A000DEBF0FBECDBF7C01C42EE52FCB01D22EE7
:1024B00019A221E02D1510F02AE0D22E8E010F5D19
:1024C0001F4F8D2C912CA12CB12C6C2D7E2FA50192
:1024D00094010E94CD138C2DD29E8019112401509D
:1024E00011098A3014F4805D01C0895CF801808391
:1024F000211531054105510521F0C22EE32FCA01F6
:10250000E4CFB801C7010E940A12A1960FB6F89451
:10251000DEBF0FBECDBFDF91CF911F910F91FF9016
:10252000EF90DF90CF90BF90AF909F908F900895E5
:10253000CF92DF92EF92FF920F931F93CF93DF938F
:10254000EC016A017B012115310579F4E881F981FB
:102550000190F081E02D642FDF91CF911F910F91B9
:10256000FF90EF90DF90CF9009942A303105E9F485
:1025700077FF1AC06DE20E9422128C014427552772
:10258000BA014C195D096E097F092AE0CE010E944B
:102590003F12800F911FDF91CF911F910F91FF90FC
:1025A000EF90DF90CF9008952AE0B701A601CE0109
:1025B000DF91CF911F910F91FF90EF90DF90CF901F
:1025C0000C943F129A01AB01662757FD6095762F58
:1025D0000C9498120F931F93CF93DF93EC019A0101
:1025E000AB01662757FD6095762F0E9498128C01EB
:1025F000CE010E942912800F911FDF91CF911F9170
:102600000F9108952115310541F4DC01ED91FC9104
:102610000190F081E02D642F09940C943F120F93E8
:102620001F93CF93DF93EC010E9402138C01CE0124
:102630000E942912800F911FDF91CF911F910F915E
:102640000895611571058105910511F00C948214AE
:102650000895CF93DF9300D000D0CDB7DEB79B01B4
:10266000AC01611571058105910569F069833A83B3
:102670004B835C830E947D1429813A814B815C816C
:102680000E94EF1303C060E070E0CB010F900F9049
:102690000F900F90DF91CF910895CF92DF92EF923C
:1026A000FF926B017C01621773078407950764F43E
:1026B000CA01B9016C197D098E099F090E9429136D
:1026C0006C0D7D1D8E1D9F1DFF90EF90DF90CF90B4
:1026D00008954F925F926F927F92AF92BF92CF9286
:1026E000DF92EF92FF920F931F93CF93DF93CDB7BB
:1026F000DEB729013A01621B730B840B950B298904
:102700003A894B895C892A193B094C095D09298B57
:102710003A8B4B8B5C8B9B01AC0169897A898B89E5
:102720009C890E94B113E418F50806091709A8014D
:1027300097010E94EF132A0D3B1D4C1D5D1DCA0120
:10274000B901DF91CF911F910F91FF90EF90DF9032
:10275000CF90BF90AF907F906F905F904F90089513
:102760000895DB018F939F930E940E14BF91AF9148
:10277000A29F800D911DA39F900DB29F900D1124DB
:102780000895991B79E004C0991F961708F0961BCD
:10279000881F7A95C9F780950895A1E21A2EAA1B81
:1027A000BB1BFD010DC0AA1FBB1FEE1FFF1FA21701
:1027B000B307E407F50720F0A21BB30BE40BF50BFE
:1027C000661F771F881F991F1A9469F76095709587
:1027D000809590959B01AC01BD01CF010895052E18
:1027E00097FB1EF400940E94061457FD07D00E9428
:1027F000CD1307FC03D04EF40C940614509540956D
:10280000309521953F4F4F4F5F4F0895909580959C
:10281000709561957F4F8F4F9F4F08950E941F14B1
:10282000A59F900DB49F900DA49F800D911D112424
:102830000895EE0FFF1F0590F491E02D0994A29FDB
:10284000B001B39FC001A39F700D811D1124911D84
:10285000B29F700D811D1124911D08958F929F923A
:10286000AF92BF92CF92DF92EF92FF92CF93DF931E
:10287000EC01688179818A819B81611571058105EF
:10288000910521F464E279ED8BE597E02DE133EFDA
:1028900041E050E00E94EF1349015A019B01AC0155
:1028A000A7EAB1E40E940E146B017C01ACEEB4EF18
:1028B000A50194010E949714C60ED71EE81EF91EAA
:1028C000F7FE06C081E0C81AD108E10880E8F80ADE
:1028D000C882D982EA82FB82C701B6019F77DF9165
:1028E000CF91FF90EF90DF90CF90BF90AF909F90EF
:1028F0008F9008950E942E14089580E091E00E9428
:102900002E140895609300017093010180930201D9
:10291000909303010895FB01DC018D9101908019D2
:102920000110D9F3990B0895B7FF0C940E140E946F
:0C2930000E14821B930B0895F894FFCF47
:10293C000100000001010000000100014D6F7669EB
:10294C006E67200020746F20706F736974696F6EEE
:10295C00203A20006465672E0061726D002F215CA7
:10296C0020496E746572727570746564202D2054E4
:10297C0068652073776974636820776173206F7062
:10298C00657261746564207768696C65204920778D
:10299C006173206D6F76696E67202100506F7765CB
:1029AC0072696E67206F66662074686520002073FC
:1029BC006572766F202E2E2E0053746172746564CE
:1029CC002E00496E697469616C697A696E67207052
:1029DC006F736974696F6E732E00496E69746961E7
:1029EC006C697A696E672072616E646F6D207365B5
:1029FC0065642E0044656C6179696E6720666F7240
:102A0C002000206D7365632E2E2E002F215C5B53EE
:102A1C006F66742044656C61795D20496E746572D3
:102A2C00727570746564202D205468652073776905
:102A3C0074636820776173206F706572617465646C
:102A4C00207768696C65204920776173207761690C
:102A5C0074696E67206F6E20707572706F7365206D
:102A6C002100206C61737444697374616E63653A00
:102A7C00200044657465637465642120637572720B
:102A8C00656E7444697374616E63653A004765746E
:102A9C0074696E672074697265642C206C6561764C
:102AAC00696E6720696D70617469656E74206D6FF5
:102ABC0064652E2E2E00486964696E6720666C6111
:102ACC006700476F696E67206261636B20686F6D8A
:102ADC006500436C6F73696E6720646F6F72005290
:102AEC00616E646F6D20636865636B2C206261623C
:102AFC00792E200057686F207475726E6564206D96
:102B0C0065206F6E3F0049276D20696D7061746997
:102B1C00656E74207269676874206E6F77202D2043
:102B2C00666F722074686520002074696D652100E1
:102B3C0047657474696E6720696D70617469656E40
:102B4C00742E2E2E2000206F66200054696D652097
:102B5C00646966666572656E63652069733A200008
:102B6C00416C72696768742C207468617473206995
:102B7C0074212049276D2067657474696E6720691C
:102B8C006D70617469656E7421002D2D2D2D2D2DA8
:102B9C002D2D205374617274696E672062656861B3
:102BAC0076696F75723A205B005D002D2D2D2D2DF1
:102BBC002D2D2D20004E6F726D616C20666C69702E
:102BCC0000436865636B004D756C74692074727991
:102BDC0000436865636B20616E6420726574757266
:102BEC006E00436865636B2C20636865636B2061C2
:102BFC006E642072657475726E00416672616964F0
:102C0C00004F682C2077616974004372617A7920D7
:102C1C00736C6F77004D6174726978004372617ADE
:102C2C007920646F6F7200447269766520617761F8
:102C3C0079004261636B20616E6420466F72746828
:102C4C00006C6F7720666C617070696E67206172C2
:102C5C006F756E64007475726E206F66662C2077CB
:102C6C00616974006C6F6E672077616974206166AE
:102C7C00746572207475726E6F6666005669627246
:102C8C006174696E6700466C617070696E67206470
:102C9C006F6F722061726F756E6400416E6772792E
:102CAC00207475726E2D6F66660044656661756C76
:102CBC007400000000006610E211E80F0110F30F21
:102CCC0044100D0A006E616E00696E66006F7666C8
:022CDC000000F6
:00000001FF
